{
  "transactions": [
    {
      "hash": "0xbcb2b6e481151030b1f82205771c3fb7db00e6c6b0cf051675aec7813673d897",
      "transactionType": "CALL",
      "contractName": null,
      "contractAddress": "0x4b653d974cd4fb8b1fe050cbf797b9fd1b31d8f9",
      "function": "mint(address,uint256)",
      "arguments": [
        "0x1804c8AB1F12E6bbf3894d4083f33e07309d1f38",
        "100000000000000000000"
      ],
      "transaction": {
        "from": "0x36b8e0eae5596803d45bcada40ee6af86f352362",
        "to": "0x4b653d974cd4fb8b1fe050cbf797b9fd1b31d8f9",
        "gas": "0x12820",
        "value": "0x0",
        "input": "0x40c10f190000000000000000000000001804c8ab1f12e6bbf3894d4083f33e07309d1f380000000000000000000000000000000000000000000000056bc75e2d63100000",
        "nonce": "0x7d",
        "chainId": "0xaa36a7"
      },
      "additionalContracts": [],
      "isFixedGasLimit": false
    },
    {
      "hash": "0x4675c9d5fd53dead661c86517a4de74acaffceca585021bcee4b06a45ee85233",
      "transactionType": "CALL",
      "contractName": null,
      "contractAddress": "0x4b653d974cd4fb8b1fe050cbf797b9fd1b31d8f9",
      "function": "approve(address,uint256)",
      "arguments": [
        "0x841ECE2d146eaD8724444e2BDA9594D4Ac0398Cc",
        "100000000000000000000"
      ],
      "transaction": {
        "from": "0x36b8e0eae5596803d45bcada40ee6af86f352362",
        "to": "0x4b653d974cd4fb8b1fe050cbf797b9fd1b31d8f9",
        "gas": "0xfd42",
        "value": "0x0",
        "input": "0x095ea7b3000000000000000000000000841ece2d146ead8724444e2bda9594d4ac0398cc0000000000000000000000000000000000000000000000056bc75e2d63100000",
        "nonce": "0x7e",
        "chainId": "0xaa36a7"
      },
      "additionalContracts": [],
      "isFixedGasLimit": false
    },
    {
      "hash": "0xcde9a550d3c8e6209c47bcf7e70fb45b305c5c3146848007f191bfb02d3585db",
      "transactionType": "CALL",
      "contractName": null,
      "contractAddress": "0x841ece2d146ead8724444e2bda9594d4ac0398cc",
      "function": "deposit(uint256,address)",
      "arguments": [
        "100000000000000000000",
        "0x1804c8AB1F12E6bbf3894d4083f33e07309d1f38"
      ],
      "transaction": {
        "from": "0x36b8e0eae5596803d45bcada40ee6af86f352362",
        "to": "0x841ece2d146ead8724444e2bda9594d4ac0398cc",
        "gas": "0x278ad",
        "value": "0x0",
        "input": "0x6e553f650000000000000000000000000000000000000000000000056bc75e2d631000000000000000000000000000001804c8ab1f12e6bbf3894d4083f33e07309d1f38",
        "nonce": "0x7f",
        "chainId": "0xaa36a7"
      },
      "additionalContracts": [],
      "isFixedGasLimit": false
    }
  ],
  "receipts": [
    {
      "status": "0x1",
      "cumulativeGasUsed": "0x590f90",
      "logs": [
        {
          "address": "0x4b653d974cd4fb8b1fe050cbf797b9fd1b31d8f9",
          "topics": [
            "0xddf252ad1be2c89b69c2b068fc378daa952ba7f163c4a11628f55a4df523b3ef",
            "0x0000000000000000000000000000000000000000000000000000000000000000",
            "0x0000000000000000000000001804c8ab1f12e6bbf3894d4083f33e07309d1f38"
          ],
          "data": "0x0000000000000000000000000000000000000000000000056bc75e2d63100000",
          "blockHash": "0x8303353d2cc1112976a72d610fecbd73ed4ea0819cafcd354a8f0a02d5e873f4",
          "blockNumber": "0x90c6de",
          "blockTimestamp": "0x68fcef74",
          "transactionHash": "0xbcb2b6e481151030b1f82205771c3fb7db00e6c6b0cf051675aec7813673d897",
          "transactionIndex": "0x39",
          "logIndex": "0x69",
          "removed": false
        }
      ],
      "logsBloom": "0x00000000000000000000000000000000000000000000000000000000000000000000000000000000000000000000000000000000000000000000000000000000000000000000000000000008000000000000000000000000000000000000000000000000020000000001000000000800002000000000000000000010000000000000000000000000000004004000000000000000000000000000000000000000000000000000000000000000000000000000000000000000000000000000000000000002000004000000000000000000000000000000000000000000000020000000000000000000000000000000000000000000000000000000000000000000",
      "type": "0x2",
      "transactionHash": "0xbcb2b6e481151030b1f82205771c3fb7db00e6c6b0cf051675aec7813673d897",
      "transactionIndex": "0x39",
      "blockHash": "0x8303353d2cc1112976a72d610fecbd73ed4ea0819cafcd354a8f0a02d5e873f4",
      "blockNumber": "0x90c6de",
      "gasUsed": "0xca7b",
      "effectiveGasPrice": "0xf4248",
      "from": "0x36b8e0eae5596803d45bcada40ee6af86f352362",
      "to": "0x4b653d974cd4fb8b1fe050cbf797b9fd1b31d8f9",
      "contractAddress": null
    },
    {
      "status": "0x1",
      "cumulativeGasUsed": "0x746aab",
      "logs": [
        {
          "address": "0x4b653d974cd4fb8b1fe050cbf797b9fd1b31d8f9",
          "topics": [
            "0x8c5be1e5ebec7d5bd14f71427d1e84f3dd0314c0f7b2291e5b200ac8c7c3b925",
            "0x00000000000000000000000036b8e0eae5596803d45bcada40ee6af86f352362",
            "0x000000000000000000000000841ece2d146ead8724444e2bda9594d4ac0398cc"
          ],
          "data": "0x0000000000000000000000000000000000000000000000056bc75e2d63100000",
          "blockHash": "0x8303353d2cc1112976a72d610fecbd73ed4ea0819cafcd354a8f0a02d5e873f4",
          "blockNumber": "0x90c6de",
          "blockTimestamp": "0x68fcef74",
          "transactionHash": "0x4675c9d5fd53dead661c86517a4de74acaffceca585021bcee4b06a45ee85233",
          "transactionIndex": "0x57",
          "logIndex": "0x92",
          "removed": false
        }
      ],
      "logsBloom": "0x00000000000000000000000000000000000000000000000000000000000000000000000000000000000000000000000000000000000000000000000040200000000000000000000000000000000000000000080000000000000000000000000000000000000000000000000000000800002000000000000000000000000000000000000000000000000000004000000000000000000000000000000000000000020000000000000000000000000000000000000000000000000000000000000000000100000000000000000000000000000000000000000000800000000000000010800000000000000000000000000000000000000000000000000001000000",
      "type": "0x2",
      "transactionHash": "0x4675c9d5fd53dead661c86517a4de74acaffceca585021bcee4b06a45ee85233",
      "transactionIndex": "0x57",
      "blockHash": "0x8303353d2cc1112976a72d610fecbd73ed4ea0819cafcd354a8f0a02d5e873f4",
      "blockNumber": "0x90c6de",
      "gasUsed": "0xb75c",
      "effectiveGasPrice": "0xf4248",
      "from": "0x36b8e0eae5596803d45bcada40ee6af86f352362",
      "to": "0x4b653d974cd4fb8b1fe050cbf797b9fd1b31d8f9",
      "contractAddress": null
    },
    {
      "status": "0x1",
      "cumulativeGasUsed": "0x7634b8",
      "logs": [
        {
          "address": "0x4b653d974cd4fb8b1fe050cbf797b9fd1b31d8f9",
          "topics": [
            "0xddf252ad1be2c89b69c2b068fc378daa952ba7f163c4a11628f55a4df523b3ef",
            "0x00000000000000000000000036b8e0eae5596803d45bcada40ee6af86f352362",
            "0x000000000000000000000000841ece2d146ead8724444e2bda9594d4ac0398cc"
          ],
          "data": "0x0000000000000000000000000000000000000000000000056bc75e2d63100000",
          "blockHash": "0x8303353d2cc1112976a72d610fecbd73ed4ea0819cafcd354a8f0a02d5e873f4",
          "blockNumber": "0x90c6de",
          "blockTimestamp": "0x68fcef74",
          "transactionHash": "0xcde9a550d3c8e6209c47bcf7e70fb45b305c5c3146848007f191bfb02d3585db",
          "transactionIndex": "0x58",
          "logIndex": "0x93",
          "removed": false
        },
        {
          "address": "0x841ece2d146ead8724444e2bda9594d4ac0398cc",
          "topics": [
            "0xddf252ad1be2c89b69c2b068fc378daa952ba7f163c4a11628f55a4df523b3ef",
            "0x0000000000000000000000000000000000000000000000000000000000000000",
            "0x0000000000000000000000001804c8ab1f12e6bbf3894d4083f33e07309d1f38"
          ],
          "data": "0x0000000000000000000000000000000000000000000000056bc75e2d63100000",
          "blockHash": "0x8303353d2cc1112976a72d610fecbd73ed4ea0819cafcd354a8f0a02d5e873f4",
          "blockNumber": "0x90c6de",
          "blockTimestamp": "0x68fcef74",
          "transactionHash": "0xcde9a550d3c8e6209c47bcf7e70fb45b305c5c3146848007f191bfb02d3585db",
          "transactionIndex": "0x58",
          "logIndex": "0x94",
          "removed": false
        },
        {
          "address": "0x841ece2d146ead8724444e2bda9594d4ac0398cc",
          "topics": [
            "0xdcbc1c05240f31ff3ad067ef1ee35ce4997762752e3a095284754544f4c709d7",
            "0x00000000000000000000000036b8e0eae5596803d45bcada40ee6af86f352362",
            "0x0000000000000000000000001804c8ab1f12e6bbf3894d4083f33e07309d1f38"
          ],
          "data": "0x0000000000000000000000000000000000000000000000056bc75e2d631000000000000000000000000000000000000000000000000000056bc75e2d63100000",
          "blockHash": "0x8303353d2cc1112976a72d610fecbd73ed4ea0819cafcd354a8f0a02d5e873f4",
          "blockNumber": "0x90c6de",
          "blockTimestamp": "0x68fcef74",
          "transactionHash": "0xcde9a550d3c8e6209c47bcf7e70fb45b305c5c3146848007f191bfb02d3585db",
          "transactionIndex": "0x58",
          "logIndex": "0x95",
          "removed": false
        }
      ],
      "logsBloom": "0x00000000000000000000000000000000000000000000000000000000000000000000000000000000000000000000000000000000000000000000000040000000000000400000000000000008000000000000080000000000000000000000000000000000020000000001000000000800002000000004000000000010000000000000002000000000000004004000000000000000000000000000000000000000000000000000000000000000000000000000000000000000000000000000020000000102000004000000000000000000000000000008000000800000000020000000800000000000000000000000000000000000000000000000000001000000",
      "type": "0x2",
      "transactionHash": "0xcde9a550d3c8e6209c47bcf7e70fb45b305c5c3146848007f191bfb02d3585db",
      "transactionIndex": "0x58",
      "blockHash": "0x8303353d2cc1112976a72d610fecbd73ed4ea0819cafcd354a8f0a02d5e873f4",
      "blockNumber": "0x90c6de",
      "gasUsed": "0x1ca0d",
      "effectiveGasPrice": "0xf4248",
      "from": "0x36b8e0eae5596803d45bcada40ee6af86f352362",
      "to": "0x841ece2d146ead8724444e2bda9594d4ac0398cc",
      "contractAddress": null
    }
  ],
  "libraries": [],
  "pending": [],
  "returns": {},
  "timestamp": 1761407005,
  "chain": 11155111,
  "commit": "7b23005"
}