{
  "transactions": [
    {
      "hash": "0xaae2d1a3d6cfc638cbdb904d8da96d6925082b39418a671d92bcb8e489d5634b",
      "transactionType": "CALL",
      "contractName": null,
      "contractAddress": "0x781ec7b53561877fac4b2503bc4fe4f46254cf05",
      "function": "mint(address,uint256)",
      "arguments": [
        "0x1804c8AB1F12E6bbf3894d4083f33e07309d1f38",
        "100000000"
      ],
      "transaction": {
        "from": "0x36b8e0eae5596803d45bcada40ee6af86f352362",
        "to": "0x781ec7b53561877fac4b2503bc4fe4f46254cf05",
        "gas": "0x127da",
        "value": "0x0",
        "input": "0x40c10f190000000000000000000000001804c8ab1f12e6bbf3894d4083f33e07309d1f380000000000000000000000000000000000000000000000000000000005f5e100",
        "nonce": "0x77",
        "chainId": "0xaa36a7"
      },
      "additionalContracts": [],
      "isFixedGasLimit": false
    },
    {
      "hash": "0xd8122c186259e1d8244334b47320f545417449f88699964ab0b76aaac2f95305",
      "transactionType": "CALL",
      "contractName": null,
      "contractAddress": "0x781ec7b53561877fac4b2503bc4fe4f46254cf05",
      "function": "approve(address,uint256)",
      "arguments": [
        "0x37abbA7cb3C5125A49E79f8676F83b7288c45729",
        "10000000"
      ],
      "transaction": {
        "from": "0x36b8e0eae5596803d45bcada40ee6af86f352362",
        "to": "0x781ec7b53561877fac4b2503bc4fe4f46254cf05",
        "gas": "0xfd00",
        "value": "0x0",
        "input": "0x095ea7b300000000000000000000000037abba7cb3c5125a49e79f8676f83b7288c457290000000000000000000000000000000000000000000000000000000000989680",
        "nonce": "0x78",
        "chainId": "0xaa36a7"
      },
      "additionalContracts": [],
      "isFixedGasLimit": false
    },
    {
      "hash": "0xed429ca87a847e0cce6faaa45be7eaa05b1fb18e082587dc26f5a800f3ace9c7",
      "transactionType": "CALL",
      "contractName": null,
      "contractAddress": "0x37abba7cb3c5125a49e79f8676f83b7288c45729",
      "function": "deposit(uint256,address)",
      "arguments": [
        "10000000",
        "0x1804c8AB1F12E6bbf3894d4083f33e07309d1f38"
      ],
      "transaction": {
        "from": "0x36b8e0eae5596803d45bcada40ee6af86f352362",
        "to": "0x37abba7cb3c5125a49e79f8676f83b7288c45729",
        "gas": "0x2786b",
        "value": "0x0",
        "input": "0x6e553f6500000000000000000000000000000000000000000000000000000000009896800000000000000000000000001804c8ab1f12e6bbf3894d4083f33e07309d1f38",
        "nonce": "0x79",
        "chainId": "0xaa36a7"
      },
      "additionalContracts": [],
      "isFixedGasLimit": false
    }
  ],
  "receipts": [
    {
      "status": "0x1",
      "cumulativeGasUsed": "0x6c499a",
      "logs": [
        {
          "address": "0x781ec7b53561877fac4b2503bc4fe4f46254cf05",
          "topics": [
            "0xddf252ad1be2c89b69c2b068fc378daa952ba7f163c4a11628f55a4df523b3ef",
            "0x0000000000000000000000000000000000000000000000000000000000000000",
            "0x0000000000000000000000001804c8ab1f12e6bbf3894d4083f33e07309d1f38"
          ],
          "data": "0x0000000000000000000000000000000000000000000000000000000005f5e100",
          "blockHash": "0x3b4cb1ae06a2a654cb96c01df83ba8783df0081aa4afccb394931744aa85f100",
          "blockNumber": "0x90bd32",
          "blockTimestamp": "0x68fc7804",
          "transactionHash": "0xaae2d1a3d6cfc638cbdb904d8da96d6925082b39418a671d92bcb8e489d5634b",
          "transactionIndex": "0x29",
          "logIndex": "0x63",
          "removed": false
        }
      ],
      "logsBloom": "0x00000000000000000000000020000000000000000000000000000000000000000000000000000000000000000000000000000000000000000000000000000000000000000000000000000008000000000000000000000000000000000000000000000000020000000001000000000800000000000000000000000010000000000000000000200000000004000000000000000000000000000000000000000000000000000000020000000000000000000000000000000000000000000000000000000002000004000000000000000000000000000000000000000000000020000000000000000000000000000000000000000000000000000000000000000000",
      "type": "0x2",
      "transactionHash": "0xaae2d1a3d6cfc638cbdb904d8da96d6925082b39418a671d92bcb8e489d5634b",
      "transactionIndex": "0x29",
      "blockHash": "0x3b4cb1ae06a2a654cb96c01df83ba8783df0081aa4afccb394931744aa85f100",
      "blockNumber": "0x90bd32",
      "gasUsed": "0xca4b",
      "effectiveGasPrice": "0xf4244",
      "from": "0x36b8e0eae5596803d45bcada40ee6af86f352362",
      "to": "0x781ec7b53561877fac4b2503bc4fe4f46254cf05",
      "contractAddress": null
    },
    {
      "status": "0x1",
      "cumulativeGasUsed": "0x6d00c6",
      "logs": [
        {
          "address": "0x781ec7b53561877fac4b2503bc4fe4f46254cf05",
          "topics": [
            "0x8c5be1e5ebec7d5bd14f71427d1e84f3dd0314c0f7b2291e5b200ac8c7c3b925",
            "0x00000000000000000000000036b8e0eae5596803d45bcada40ee6af86f352362",
            "0x00000000000000000000000037abba7cb3c5125a49e79f8676f83b7288c45729"
          ],
          "data": "0x0000000000000000000000000000000000000000000000000000000000989680",
          "blockHash": "0x3b4cb1ae06a2a654cb96c01df83ba8783df0081aa4afccb394931744aa85f100",
          "blockNumber": "0x90bd32",
          "blockTimestamp": "0x68fc7804",
          "transactionHash": "0xd8122c186259e1d8244334b47320f545417449f88699964ab0b76aaac2f95305",
          "transactionIndex": "0x2a",
          "logIndex": "0x64",
          "removed": false
        }
      ],
      "logsBloom": "0x00000000000000000000000020000000000000000000000000000000000000000000000000000000000000000200000000000000001000000000000040200000000000000000000000000000000000000000080000000000000000000000000000000000000000000000000000000000000000000000000000000000000000000000000000200000000000000000000000000000000000000000000000000000020000000000020000000000000000000000000000000000000000000000000000000000000000000000000000000000000000000000000000000000000000000010800000000000000000000000000000000000000000000000000000800000",
      "type": "0x2",
      "transactionHash": "0xd8122c186259e1d8244334b47320f545417449f88699964ab0b76aaac2f95305",
      "transactionIndex": "0x2a",
      "blockHash": "0x3b4cb1ae06a2a654cb96c01df83ba8783df0081aa4afccb394931744aa85f100",
      "blockNumber": "0x90bd32",
      "gasUsed": "0xb72c",
      "effectiveGasPrice": "0xf4244",
      "from": "0x36b8e0eae5596803d45bcada40ee6af86f352362",
      "to": "0x781ec7b53561877fac4b2503bc4fe4f46254cf05",
      "contractAddress": null
    },
    {
      "status": "0x1",
      "cumulativeGasUsed": "0x6ecaa3",
      "logs": [
        {
          "address": "0x781ec7b53561877fac4b2503bc4fe4f46254cf05",
          "topics": [
            "0xddf252ad1be2c89b69c2b068fc378daa952ba7f163c4a11628f55a4df523b3ef",
            "0x00000000000000000000000036b8e0eae5596803d45bcada40ee6af86f352362",
            "0x00000000000000000000000037abba7cb3c5125a49e79f8676f83b7288c45729"
          ],
          "data": "0x0000000000000000000000000000000000000000000000000000000000989680",
          "blockHash": "0x3b4cb1ae06a2a654cb96c01df83ba8783df0081aa4afccb394931744aa85f100",
          "blockNumber": "0x90bd32",
          "blockTimestamp": "0x68fc7804",
          "transactionHash": "0xed429ca87a847e0cce6faaa45be7eaa05b1fb18e082587dc26f5a800f3ace9c7",
          "transactionIndex": "0x2b",
          "logIndex": "0x65",
          "removed": false
        },
        {
          "address": "0x37abba7cb3c5125a49e79f8676f83b7288c45729",
          "topics": [
            "0xddf252ad1be2c89b69c2b068fc378daa952ba7f163c4a11628f55a4df523b3ef",
            "0x0000000000000000000000000000000000000000000000000000000000000000",
            "0x0000000000000000000000001804c8ab1f12e6bbf3894d4083f33e07309d1f38"
          ],
          "data": "0x0000000000000000000000000000000000000000000000000000000000989680",
          "blockHash": "0x3b4cb1ae06a2a654cb96c01df83ba8783df0081aa4afccb394931744aa85f100",
          "blockNumber": "0x90bd32",
          "blockTimestamp": "0x68fc7804",
          "transactionHash": "0xed429ca87a847e0cce6faaa45be7eaa05b1fb18e082587dc26f5a800f3ace9c7",
          "transactionIndex": "0x2b",
          "logIndex": "0x66",
          "removed": false
        },
        {
          "address": "0x37abba7cb3c5125a49e79f8676f83b7288c45729",
          "topics": [
            "0xdcbc1c05240f31ff3ad067ef1ee35ce4997762752e3a095284754544f4c709d7",
            "0x00000000000000000000000036b8e0eae5596803d45bcada40ee6af86f352362",
            "0x0000000000000000000000001804c8ab1f12e6bbf3894d4083f33e07309d1f38"
          ],
          "data": "0x00000000000000000000000000000000000000000000000000000000009896800000000000000000000000000000000000000000000000000000000000989680",
          "blockHash": "0x3b4cb1ae06a2a654cb96c01df83ba8783df0081aa4afccb394931744aa85f100",
          "blockNumber": "0x90bd32",
          "blockTimestamp": "0x68fc7804",
          "transactionHash": "0xed429ca87a847e0cce6faaa45be7eaa05b1fb18e082587dc26f5a800f3ace9c7",
          "transactionIndex": "0x2b",
          "logIndex": "0x67",
          "removed": false
        }
      ],
      "logsBloom": "0x00000000000000000000000020000000000000000000000000000000000000000000000000000000000000000200000000000000001000000000000040000000000000400000000000000008000000000000080000000000000000000000000000000000020000000001000000000800000000000004000000000010000000000000000000200000000004000000400000000000000000000000000000000000000000000000020000000000000040000000000000000000000000000000000000000002000004000000000000000001000000000008000000000000000020000000800000000000000000000000000000000000000000000000000000800000",
      "type": "0x2",
      "transactionHash": "0xed429ca87a847e0cce6faaa45be7eaa05b1fb18e082587dc26f5a800f3ace9c7",
      "transactionIndex": "0x2b",
      "blockHash": "0x3b4cb1ae06a2a654cb96c01df83ba8783df0081aa4afccb394931744aa85f100",
      "blockNumber": "0x90bd32",
      "gasUsed": "0x1c9dd",
      "effectiveGasPrice": "0xf4244",
      "from": "0x36b8e0eae5596803d45bcada40ee6af86f352362",
      "to": "0x37abba7cb3c5125a49e79f8676f83b7288c45729",
      "contractAddress": null
    }
  ],
  "libraries": [],
  "pending": [],
  "returns": {},
  "timestamp": 1761376427,
  "chain": 11155111,
  "commit": "7b23005"
}